{
  "transactions": [
    {
      "hash": "0xf1ea2bb531b599eec21250397bb1dcffd8ed6c0076bacae40ed2430235df60d8",
      "transactionType": "CALL",
      "contractName": null,
      "contractAddress": "0x26CF7A7DF7d1E00D83A5Ca24385f697a3ca4577d",
      "function": "upgrade(address,address)",
      "arguments": [
        "0xEA3E82F9Ae371A6a372A6DCffB1a9bD17e0608eF",
        "0x2F12430429f4a5b8EaEa284d0511065622A3b1a7"
      ],
      "transaction": {
        "type": "0x02",
        "from": "0x72b9fcc9ca53480a89839620c88526c76b1905a5",
        "to": "0x26cf7a7df7d1e00d83a5ca24385f697a3ca4577d",
        "gas": "0xdde6",
        "value": "0x0",
        "data": "0x99a88ec4000000000000000000000000ea3e82f9ae371a6a372a6dcffb1a9bd17e0608ef0000000000000000000000002f12430429f4a5b8eaea284d0511065622a3b1a7",
        "nonce": "0x19",
        "accessList": []
      },
      "additionalContracts": [],
      "isFixedGasLimit": false
    }
  ],
  "receipts": [
    {
      "transactionHash": "0xf1ea2bb531b599eec21250397bb1dcffd8ed6c0076bacae40ed2430235df60d8",
      "transactionIndex": "0x7",
      "blockHash": "0xa9c3c8bc19c97061ff254feca40573837c2a1d4930ef044394cd2b777027c3ed",
      "blockNumber": "0x169e44",
      "from": "0x72b9fcC9Ca53480a89839620c88526c76b1905a5",
      "to": "0x26CF7A7DF7d1E00D83A5Ca24385f697a3ca4577d",
      "cumulativeGasUsed": "0xc4d65",
      "gasUsed": "0x97ba",
      "contractAddress": null,
      "logs": [
        {
          "address": "0xEA3E82F9Ae371A6a372A6DCffB1a9bD17e0608eF",
          "topics": [
            "0xbc7cd75a20ee27fd9adebab32041f755214dbc6bffa90cc0225b39da2e5c2d3b",
            "0x0000000000000000000000002f12430429f4a5b8eaea284d0511065622a3b1a7"
          ],
          "data": "0x",
          "blockHash": "0xa9c3c8bc19c97061ff254feca40573837c2a1d4930ef044394cd2b777027c3ed",
          "blockNumber": "0x169e44",
          "transactionHash": "0xf1ea2bb531b599eec21250397bb1dcffd8ed6c0076bacae40ed2430235df60d8",
          "transactionIndex": "0x7",
          "logIndex": "0x10",
          "removed": false
        }
      ],
      "status": "0x1",
      "logsBloom": "0x00000000000000000000000000000000400000000000000000000000000000000000000000000000000000000000000000000000000000000000000000000000000000000000000000000000000002000000000000000000000000000a00040000000000000000000000000000000000000000000000000000000400000000000000000000010000000000000000000000000000000000000000000000000000000000000000000000000000000000000000000000000000000000000000000000000020400000000000000000000000000000000000000000000000000000000000000000000000000000000000000000000000000000000000000000000000",
      "type": "0x2",
      "effectiveGasPrice": "0x1a7d1e215"
    }
  ],
  "libraries": [],
  "pending": [],
  "returns": {},
  "timestamp": 1714904685,
  "chain": 17000,
  "commit": "9e8a841"
}